{
  "_format": "hh3-artifact-1",
  "contractName": "SafeDeal",
  "sourceName": "contracts/SafeDeal.sol",
  "abi": [
    {
      "inputs": [],
      "stateMutability": "nonpayable",
      "type": "constructor"
    },
    {
      "inputs": [
        {
          "internalType": "address",
          "name": "sender",
          "type": "address"
        },
        {
          "internalType": "uint256",
          "name": "tokenId",
          "type": "uint256"
        },
        {
          "internalType": "address",
          "name": "owner",
          "type": "address"
        }
      ],
      "name": "ERC721IncorrectOwner",
      "type": "error"
    },
    {
      "inputs": [
        {
          "internalType": "address",
          "name": "operator",
          "type": "address"
        },
        {
          "internalType": "uint256",
          "name": "tokenId",
          "type": "uint256"
        }
      ],
      "name": "ERC721InsufficientApproval",
      "type": "error"
    },
    {
      "inputs": [
        {
          "internalType": "address",
          "name": "approver",
          "type": "address"
        }
      ],
      "name": "ERC721InvalidApprover",
      "type": "error"
    },
    {
      "inputs": [
        {
          "internalType": "address",
          "name": "operator",
          "type": "address"
        }
      ],
      "name": "ERC721InvalidOperator",
      "type": "error"
    },
    {
      "inputs": [
        {
          "internalType": "address",
          "name": "owner",
          "type": "address"
        }
      ],
      "name": "ERC721InvalidOwner",
      "type": "error"
    },
    {
      "inputs": [
        {
          "internalType": "address",
          "name": "receiver",
          "type": "address"
        }
      ],
      "name": "ERC721InvalidReceiver",
      "type": "error"
    },
    {
      "inputs": [
        {
          "internalType": "address",
          "name": "sender",
          "type": "address"
        }
      ],
      "name": "ERC721InvalidSender",
      "type": "error"
    },
    {
      "inputs": [
        {
          "internalType": "uint256",
          "name": "tokenId",
          "type": "uint256"
        }
      ],
      "name": "ERC721NonexistentToken",
      "type": "error"
    },
    {
      "inputs": [
        {
          "internalType": "address",
          "name": "owner",
          "type": "address"
        }
      ],
      "name": "OwnableInvalidOwner",
      "type": "error"
    },
    {
      "inputs": [
        {
          "internalType": "address",
          "name": "account",
          "type": "address"
        }
      ],
      "name": "OwnableUnauthorizedAccount",
      "type": "error"
    },
    {
      "anonymous": false,
      "inputs": [
        {
          "indexed": true,
          "internalType": "address",
          "name": "owner",
          "type": "address"
        },
        {
          "indexed": true,
          "internalType": "address",
          "name": "approved",
          "type": "address"
        },
        {
          "indexed": true,
          "internalType": "uint256",
          "name": "tokenId",
          "type": "uint256"
        }
      ],
      "name": "Approval",
      "type": "event"
    },
    {
      "anonymous": false,
      "inputs": [
        {
          "indexed": true,
          "internalType": "address",
          "name": "owner",
          "type": "address"
        },
        {
          "indexed": true,
          "internalType": "address",
          "name": "operator",
          "type": "address"
        },
        {
          "indexed": false,
          "internalType": "bool",
          "name": "approved",
          "type": "bool"
        }
      ],
      "name": "ApprovalForAll",
      "type": "event"
    },
    {
      "anonymous": false,
      "inputs": [
        {
          "indexed": false,
          "internalType": "uint256",
          "name": "_fromTokenId",
          "type": "uint256"
        },
        {
          "indexed": false,
          "internalType": "uint256",
          "name": "_toTokenId",
          "type": "uint256"
        }
      ],
      "name": "BatchMetadataUpdate",
      "type": "event"
    },
    {
      "anonymous": false,
      "inputs": [
        {
          "indexed": true,
          "internalType": "uint256",
          "name": "tokenId",
          "type": "uint256"
        },
        {
          "indexed": false,
          "internalType": "address",
          "name": "buyer",
          "type": "address"
        }
      ],
      "name": "ItemBought",
      "type": "event"
    },
    {
      "anonymous": false,
      "inputs": [
        {
          "indexed": true,
          "internalType": "uint256",
          "name": "tokenId",
          "type": "uint256"
        },
        {
          "indexed": false,
          "internalType": "uint256",
          "name": "price",
          "type": "uint256"
        }
      ],
      "name": "ItemCreated",
      "type": "event"
    },
    {
      "anonymous": false,
      "inputs": [
        {
          "indexed": true,
          "internalType": "uint256",
          "name": "tokenId",
          "type": "uint256"
        },
        {
          "indexed": false,
          "internalType": "address",
          "name": "newOwner",
          "type": "address"
        }
      ],
      "name": "ItemReleased",
      "type": "event"
    },
    {
      "anonymous": false,
      "inputs": [
        {
          "indexed": false,
          "internalType": "uint256",
          "name": "_tokenId",
          "type": "uint256"
        }
      ],
      "name": "MetadataUpdate",
      "type": "event"
    },
    {
      "anonymous": false,
      "inputs": [
        {
          "indexed": true,
          "internalType": "address",
          "name": "previousOwner",
          "type": "address"
        },
        {
          "indexed": true,
          "internalType": "address",
          "name": "newOwner",
          "type": "address"
        }
      ],
      "name": "OwnershipTransferred",
      "type": "event"
    },
    {
      "anonymous": false,
      "inputs": [
        {
          "indexed": true,
          "internalType": "address",
          "name": "from",
          "type": "address"
        },
        {
          "indexed": true,
          "internalType": "address",
          "name": "to",
          "type": "address"
        },
        {
          "indexed": true,
          "internalType": "uint256",
          "name": "tokenId",
          "type": "uint256"
        }
      ],
      "name": "Transfer",
      "type": "event"
    },
    {
      "inputs": [],
      "name": "COOLDOWN_TIME",
      "outputs": [
        {
          "internalType": "uint256",
          "name": "",
          "type": "uint256"
        }
      ],
      "stateMutability": "view",
      "type": "function"
    },
    {
      "inputs": [],
      "name": "LOCK_TIME",
      "outputs": [
        {
          "internalType": "uint256",
          "name": "",
          "type": "uint256"
        }
      ],
      "stateMutability": "view",
      "type": "function"
    },
    {
      "inputs": [],
      "name": "MAX_PER_USER",
      "outputs": [
        {
          "internalType": "uint256",
          "name": "",
          "type": "uint256"
        }
      ],
      "stateMutability": "view",
      "type": "function"
    },
    {
      "inputs": [
        {
          "internalType": "address",
          "name": "to",
          "type": "address"
        },
        {
          "internalType": "uint256",
          "name": "tokenId",
          "type": "uint256"
        }
      ],
      "name": "approve",
      "outputs": [],
      "stateMutability": "nonpayable",
      "type": "function"
    },
    {
      "inputs": [
        {
          "internalType": "address",
          "name": "owner",
          "type": "address"
        }
      ],
      "name": "balanceOf",
      "outputs": [
        {
          "internalType": "uint256",
          "name": "",
          "type": "uint256"
        }
      ],
      "stateMutability": "view",
      "type": "function"
    },
    {
      "inputs": [
        {
          "internalType": "uint256",
          "name": "_itemId",
          "type": "uint256"
        }
      ],
      "name": "confirmReceipt",
      "outputs": [],
      "stateMutability": "nonpayable",
      "type": "function"
    },
    {
      "inputs": [
        {
          "internalType": "address",
          "name": "",
          "type": "address"
        }
      ],
      "name": "cooldowns",
      "outputs": [
        {
          "internalType": "uint256",
          "name": "",
          "type": "uint256"
        }
      ],
      "stateMutability": "view",
      "type": "function"
    },
    {
      "inputs": [
        {
          "internalType": "string",
          "name": "_name",
          "type": "string"
        },
        {
          "internalType": "string",
          "name": "_type",
          "type": "string"
        },
        {
          "internalType": "uint256",
          "name": "_price",
          "type": "uint256"
        },
        {
          "internalType": "string",
          "name": "_ipfsHash",
          "type": "string"
        }
      ],
      "name": "createItem",
      "outputs": [
        {
          "internalType": "uint256",
          "name": "",
          "type": "uint256"
        }
      ],
      "stateMutability": "nonpayable",
      "type": "function"
    },
    {
      "inputs": [
        {
          "internalType": "uint256",
          "name": "tokenId",
          "type": "uint256"
        }
      ],
      "name": "getApproved",
      "outputs": [
        {
          "internalType": "address",
          "name": "",
          "type": "address"
        }
      ],
      "stateMutability": "view",
      "type": "function"
    },
    {
      "inputs": [
        {
          "internalType": "address",
          "name": "owner",
          "type": "address"
        },
        {
          "internalType": "address",
          "name": "operator",
          "type": "address"
        }
      ],
      "name": "isApprovedForAll",
      "outputs": [
        {
          "internalType": "bool",
          "name": "",
          "type": "bool"
        }
      ],
      "stateMutability": "view",
      "type": "function"
    },
    {
      "inputs": [],
      "name": "itemCount",
      "outputs": [
        {
          "internalType": "uint256",
          "name": "",
          "type": "uint256"
        }
      ],
      "stateMutability": "view",
      "type": "function"
    },
    {
      "inputs": [
        {
          "internalType": "uint256",
          "name": "",
          "type": "uint256"
        }
      ],
      "name": "items",
      "outputs": [
        {
          "internalType": "uint256",
          "name": "id",
          "type": "uint256"
        },
        {
          "internalType": "string",
          "name": "name",
          "type": "string"
        },
        {
          "internalType": "string",
          "name": "itemType",
          "type": "string"
        },
        {
          "internalType": "uint256",
          "name": "value",
          "type": "uint256"
        },
        {
          "internalType": "enum SafeDeal.State",
          "name": "state",
          "type": "uint8"
        },
        {
          "internalType": "address payable",
          "name": "seller",
          "type": "address"
        },
        {
          "internalType": "address payable",
          "name": "buyer",
          "type": "address"
        },
        {
          "internalType": "string",
          "name": "ipfsHash",
          "type": "string"
        },
        {
          "internalType": "uint256",
          "name": "lockedUntil",
          "type": "uint256"
        },
        {
          "internalType": "uint256",
          "name": "createdAt",
          "type": "uint256"
        },
        {
          "internalType": "uint256",
          "name": "lastTransferAt",
          "type": "uint256"
        }
      ],
      "stateMutability": "view",
      "type": "function"
    },
    {
      "inputs": [],
      "name": "name",
      "outputs": [
        {
          "internalType": "string",
          "name": "",
          "type": "string"
        }
      ],
      "stateMutability": "view",
      "type": "function"
    },
    {
      "inputs": [],
      "name": "owner",
      "outputs": [
        {
          "internalType": "address",
          "name": "",
          "type": "address"
        }
      ],
      "stateMutability": "view",
      "type": "function"
    },
    {
      "inputs": [
        {
          "internalType": "uint256",
          "name": "tokenId",
          "type": "uint256"
        }
      ],
      "name": "ownerOf",
      "outputs": [
        {
          "internalType": "address",
          "name": "",
          "type": "address"
        }
      ],
      "stateMutability": "view",
      "type": "function"
    },
    {
      "inputs": [
        {
          "internalType": "uint256",
          "name": "_itemId",
          "type": "uint256"
        }
      ],
      "name": "purchaseItem",
      "outputs": [],
      "stateMutability": "payable",
      "type": "function"
    },
    {
      "inputs": [],
      "name": "renounceOwnership",
      "outputs": [],
      "stateMutability": "nonpayable",
      "type": "function"
    },
    {
      "inputs": [
        {
          "internalType": "address",
          "name": "from",
          "type": "address"
        },
        {
          "internalType": "address",
          "name": "to",
          "type": "address"
        },
        {
          "internalType": "uint256",
          "name": "tokenId",
          "type": "uint256"
        }
      ],
      "name": "safeTransferFrom",
      "outputs": [],
      "stateMutability": "nonpayable",
      "type": "function"
    },
    {
      "inputs": [
        {
          "internalType": "address",
          "name": "from",
          "type": "address"
        },
        {
          "internalType": "address",
          "name": "to",
          "type": "address"
        },
        {
          "internalType": "uint256",
          "name": "tokenId",
          "type": "uint256"
        },
        {
          "internalType": "bytes",
          "name": "data",
          "type": "bytes"
        }
      ],
      "name": "safeTransferFrom",
      "outputs": [],
      "stateMutability": "nonpayable",
      "type": "function"
    },
    {
      "inputs": [
        {
          "internalType": "address",
          "name": "operator",
          "type": "address"
        },
        {
          "internalType": "bool",
          "name": "approved",
          "type": "bool"
        }
      ],
      "name": "setApprovalForAll",
      "outputs": [],
      "stateMutability": "nonpayable",
      "type": "function"
    },
    {
      "inputs": [
        {
          "internalType": "bytes4",
          "name": "interfaceId",
          "type": "bytes4"
        }
      ],
      "name": "supportsInterface",
      "outputs": [
        {
          "internalType": "bool",
          "name": "",
          "type": "bool"
        }
      ],
      "stateMutability": "view",
      "type": "function"
    },
    {
      "inputs": [],
      "name": "symbol",
      "outputs": [
        {
          "internalType": "string",
          "name": "",
          "type": "string"
        }
      ],
      "stateMutability": "view",
      "type": "function"
    },
    {
      "inputs": [
        {
          "internalType": "uint256",
          "name": "tokenId",
          "type": "uint256"
        }
      ],
      "name": "tokenURI",
      "outputs": [
        {
          "internalType": "string",
          "name": "",
          "type": "string"
        }
      ],
      "stateMutability": "view",
      "type": "function"
    },
    {
      "inputs": [
        {
          "internalType": "address",
          "name": "from",
          "type": "address"
        },
        {
          "internalType": "address",
          "name": "to",
          "type": "address"
        },
        {
          "internalType": "uint256",
          "name": "tokenId",
          "type": "uint256"
        }
      ],
      "name": "transferFrom",
      "outputs": [],
      "stateMutability": "nonpayable",
      "type": "function"
    },
    {
      "inputs": [
        {
          "internalType": "address",
          "name": "newOwner",
          "type": "address"
        }
      ],
      "name": "transferOwnership",
      "outputs": [],
      "stateMutability": "nonpayable",
      "type": "function"
    }
  ],
  "bytecode": "0x608060405234801561000f575f5ffd5b50336040518060400160405280600881526020016714d859995119585b60c21b815250604051806040016040528060048152602001635341464560e01b815250815f908161005d9190610192565b50600161006a8282610192565b5050506001600160a01b03811661009a57604051631e4fbdf760e01b81525f600482015260240160405180910390fd5b6100a3816100a9565b5061024c565b600780546001600160a01b038381166001600160a01b0319831681179093556040519116919082907f8be0079c531659141344cd1fd0a4f28419497f9722a3daafe3b4186f6b6457e0905f90a35050565b634e487b7160e01b5f52604160045260245ffd5b600181811c9082168061012257607f821691505b60208210810361014057634e487b7160e01b5f52602260045260245ffd5b50919050565b601f82111561018d57805f5260205f20601f840160051c8101602085101561016b5750805b601f840160051c820191505b8181101561018a575f8155600101610177565b50505b505050565b81516001600160401b038111156101ab576101ab6100fa565b6101bf816101b9845461010e565b84610146565b6020601f8211600181146101f1575f83156101da5750848201515b5f19600385901b1c1916600184901b17845561018a565b5f84815260208120601f198516915b828110156102205787850151825560209485019460019092019101610200565b508482101561023d57868401515f19600387901b60f8161c191681555b50505050600190811b01905550565b6120d1806102595f395ff3fe608060405260043610610161575f3560e01c80637d263245116100cd578063b88d4fde11610087578063c87b56dd11610062578063c87b56dd14610410578063d38ea5bf1461042f578063e985e9c514610442578063f2fde38b14610461575f5ffd5b8063b88d4fde146103a7578063bfb231d2146103c6578063c7ba7548146103fc575f5ffd5b80637d2632451461030457806383e4604f14610319578063843cba13146103385780638da5cb5b1461035757806395d89b4114610374578063a22cb46514610388575f5ffd5b8063413d9c3a1161011e578063413d9c3a1461026a57806342842e0e1461027e5780636352211e1461029d5780636bfb0d01146102bc57806370a08231146102d1578063715018a6146102f0575f5ffd5b806301320fe21461016557806301ffc9a7146101a357806306fdde03146101d2578063081812fc146101f3578063095ea7b31461022a57806323b872dd1461024b575b5f5ffd5b348015610170575f5ffd5b5061019061017f366004611ac4565b600a6020525f908152604090205481565b6040519081526020015b60405180910390f35b3480156101ae575f5ffd5b506101c26101bd366004611af2565b610480565b604051901515815260200161019a565b3480156101dd575f5ffd5b506101e66104aa565b60405161019a9190611b3b565b3480156101fe575f5ffd5b5061021261020d366004611b4d565b610539565b6040516001600160a01b03909116815260200161019a565b348015610235575f5ffd5b50610249610244366004611b64565b610560565b005b348015610256575f5ffd5b50610249610265366004611b8c565b61056f565b348015610275575f5ffd5b50610190600a81565b348015610289575f5ffd5b50610249610298366004611b8c565b6105fd565b3480156102a8575f5ffd5b506102126102b7366004611b4d565b61061c565b3480156102c7575f5ffd5b5061019060085481565b3480156102dc575f5ffd5b506101906102eb366004611ac4565b610626565b3480156102fb575f5ffd5b5061024961066b565b34801561030f575f5ffd5b5061019061012c81565b348015610324575f5ffd5b50610190610333366004611c6f565b61067e565b348015610343575f5ffd5b50610249610352366004611b4d565b610938565b348015610362575f5ffd5b506007546001600160a01b0316610212565b34801561037f575f5ffd5b506101e6610bd8565b348015610393575f5ffd5b506102496103a2366004611d07565b610be7565b3480156103b2575f5ffd5b506102496103c1366004611d40565b610bf2565b3480156103d1575f5ffd5b506103e56103e0366004611b4d565b610c0a565b60405161019a9b9a99989796959493929190611dbf565b348015610407575f5ffd5b50610190600481565b34801561041b575f5ffd5b506101e661042a366004611b4d565b610e02565b61024961043d366004611b4d565b610f0d565b34801561044d575f5ffd5b506101c261045c366004611e72565b611100565b34801561046c575f5ffd5b5061024961047b366004611ac4565b61112d565b5f6001600160e01b03198216632483248360e11b14806104a457506104a48261116a565b92915050565b60605f80546104b890611ea3565b80601f01602080910402602001604051908101604052809291908181526020018280546104e490611ea3565b801561052f5780601f106105065761010080835404028352916020019161052f565b820191905f5260205f20905b81548152906001019060200180831161051257829003601f168201915b5050505050905090565b5f610543826111b9565b505f828152600460205260409020546001600160a01b03166104a4565b61056b8282336111f1565b5050565b6001600160a01b03821661059d57604051633250574960e11b81525f60048201526024015b60405180910390fd5b5f6105a98383336111fe565b9050836001600160a01b0316816001600160a01b0316146105f7576040516364283d7b60e01b81526001600160a01b0380861660048301526024820184905282166044820152606401610594565b50505050565b61061783838360405180602001604052805f815250610bf2565b505050565b5f6104a4826111b9565b5f6001600160a01b038216610650576040516322718ad960e21b81525f6004820152602401610594565b506001600160a01b03165f9081526003602052604090205490565b6106736112f0565b61067c5f61131d565b565b5f600461068a33610626565b106106d75760405162461bcd60e51b815260206004820152601d60248201527f4c696d6974652061747465696e746520284d61782034206974656d73290000006044820152606401610594565b335f908152600a60205260409020546106f39061012c90611eef565b42101561074d5760405162461bcd60e51b815260206004820152602260248201527f436f6f6c646f776e2061637469663a20566575696c6c657a2070617469656e7460448201526132b960f11b6064820152608401610594565b60085460408051610180810182528281526020808201898152828401899052606083018890525f608084018190523360a085015260c0840181905260e08401889052610100840181905284518181528084018652610120850152426101408501819052610160850152858152600990925292902081518155915190919060018201906107d99082611f46565b50604082015160028201906107ee9082611f46565b5060608201516003820155608082015160048201805460ff1916600183600281111561081c5761081c611dab565b021790555060a0820151600482018054610100600160a81b0319166101006001600160a01b039384160217905560c08301516005830180546001600160a01b0319169190921617905560e082015160068201906108799082611f46565b50610100820151600782015561012082015180516108a1916008840191602090910190611a32565b50610140820151600982015561016090910151600a91820155335f81815260209290925260409091204290556108d7908261136e565b6108e181846113cf565b60088054905f6108f083612001565b9190505550807f591fb83da607b2c6982a1348c1689d04071f4851678881f0a7dd64331770cf5c8560405161092791815260200190565b60405180910390a295945050505050565b5f818152600960205260409020600854821061098f5760405162461bcd60e51b81526020600482015260166024820152754c2761727469636c65206e276578697374652070617360501b6044820152606401610594565b60058101546001600160a01b031633146109eb5760405162461bcd60e51b815260206004820152601c60248201527f5365756c206c27616368657465757220706575742076616c69646572000000006044820152606401610594565b6001600482015460ff166002811115610a0657610a06611dab565b14610a685760405162461bcd60e51b815260206004820152602c60248201527f4c2761727469636c65206e276573742070617320656e20617474656e7465206460448201526b32903b30b634b230ba34b7b760a11b6064820152608401610594565b8060070154421015610abc5760405162461bcd60e51b815260206004820152601f60248201527f506572696f646520646520626c6f63616765206e6f6e207465726d696e6565006044820152606401610594565b600481015460038201546040516101009092046001600160a01b0316916108fc82150291905f818181858888f19350505050158015610afd573d5f5f3e3d5ffd5b5060048101546005820154610b24916001600160a01b03610100909104811691168461141e565b6004810180546008830180546001810182555f918252602091829020018054610100938490046001600160a01b039081166001600160a01b03199283161790925542600a870155845460058701805460026001600160a81b0319841682871689021781179098559092169091556040805160ff199092169095179390930416808352925185927f864770fbb7b941a6786c903702a45aabd43b239f42d4e1edaf46c9735f97b10892908290030190a2505050565b6060600180546104b890611ea3565b61056b3383836114cb565b610bfd84848461056f565b6105f73385858585611569565b60096020525f908152604090208054600182018054919291610c2b90611ea3565b80601f0160208091040260200160405190810160405280929190818152602001828054610c5790611ea3565b8015610ca25780601f10610c7957610100808354040283529160200191610ca2565b820191905f5260205f20905b815481529060010190602001808311610c8557829003601f168201915b505050505090806002018054610cb790611ea3565b80601f0160208091040260200160405190810160405280929190818152602001828054610ce390611ea3565b8015610d2e5780601f10610d0557610100808354040283529160200191610d2e565b820191905f5260205f20905b815481529060010190602001808311610d1157829003601f168201915b505050506003830154600484015460058501546006860180549596939560ff841695506101009093046001600160a01b0390811694921692610d6f90611ea3565b80601f0160208091040260200160405190810160405280929190818152602001828054610d9b90611ea3565b8015610de65780601f10610dbd57610100808354040283529160200191610de6565b820191905f5260205f20905b815481529060010190602001808311610dc957829003601f168201915b50505050509080600701549080600901549080600a015490508b565b6060610e0d826111b9565b505f8281526006602052604081208054610e2690611ea3565b80601f0160208091040260200160405190810160405280929190818152602001828054610e5290611ea3565b8015610e9d5780601f10610e7457610100808354040283529160200191610e9d565b820191905f5260205f20905b815481529060010190602001808311610e8057829003601f168201915b505050505090505f610eb960408051602081019091525f815290565b905080515f03610eca575092915050565b815115610efc578082604051602001610ee4929190612030565b60405160208183030381529060405292505050919050565b610f0584611691565b949350505050565b5f8181526009602052604090206008548210610f645760405162461bcd60e51b81526020600482015260166024820152754c2761727469636c65206e276578697374652070617360501b6044820152606401610594565b5f600482015460ff166002811115610f7e57610f7e611dab565b14610fbc5760405162461bcd60e51b815260206004820152600e60248201526d50617320646973706f6e69626c6560901b6044820152606401610594565b806003015434146110215760405162461bcd60e51b815260206004820152602960248201527f4d6f6e74616e7420696e636f72726563742028456e766f79657a206c6520707260448201526869782065786163742960b81b6064820152608401610594565b600481015461010090046001600160a01b031633036110825760405162461bcd60e51b815260206004820152601b60248201527f56656e64657572206e65207065757420706173206163686574657200000000006044820152606401610594565b6005810180546001600160a01b0319163317905560048101805460ff191660011790556110b0600a42611eef565b6007820155335f818152600a6020908152604091829020429055905191825283917f0f9cbfaca7747e91d313d3856ce813b28768fb717ccf84591115f65aae74e491910160405180910390a25050565b6001600160a01b039182165f90815260056020908152604080832093909416825291909152205460ff1690565b6111356112f0565b6001600160a01b03811661115e57604051631e4fbdf760e01b81525f6004820152602401610594565b6111678161131d565b50565b5f6001600160e01b031982166380ac58cd60e01b148061119a57506001600160e01b03198216635b5e139f60e01b145b806104a457506301ffc9a760e01b6001600160e01b03198316146104a4565b5f818152600260205260408120546001600160a01b0316806104a457604051637e27328960e01b815260048101849052602401610594565b6106178383836001611702565b5f828152600260205260408120546001600160a01b039081169083161561122a5761122a818486611806565b6001600160a01b03811615611264576112455f855f5f611702565b6001600160a01b0381165f90815260036020526040902080545f190190555b6001600160a01b03851615611292576001600160a01b0385165f908152600360205260409020805460010190555b5f8481526002602052604080822080546001600160a01b0319166001600160a01b0389811691821790925591518793918516917fddf252ad1be2c89b69c2b068fc378daa952ba7f163c4a11628f55a4df523b3ef91a4949350505050565b6007546001600160a01b0316331461067c5760405163118cdaa760e01b8152336004820152602401610594565b600780546001600160a01b038381166001600160a01b0319831681179093556040519116919082907f8be0079c531659141344cd1fd0a4f28419497f9722a3daafe3b4186f6b6457e0905f90a35050565b6001600160a01b03821661139757604051633250574960e11b81525f6004820152602401610594565b5f6113a383835f6111fe565b90506001600160a01b03811615610617576040516339e3563760e11b81525f6004820152602401610594565b5f8281526006602052604090206113e68282611f46565b506040518281527ff8e1a15aba9398e019f0b49df1a4fde98ee17ae345cb5f6b5e2c27f5033e8ce79060200160405180910390a15050565b6001600160a01b03821661144757604051633250574960e11b81525f6004820152602401610594565b5f61145383835f6111fe565b90506001600160a01b03811661147f57604051637e27328960e01b815260048101839052602401610594565b836001600160a01b0316816001600160a01b0316146105f7576040516364283d7b60e01b81526001600160a01b0380861660048301526024820184905282166044820152606401610594565b6001600160a01b0382166114fd57604051630b61174360e31b81526001600160a01b0383166004820152602401610594565b6001600160a01b038381165f81815260056020908152604080832094871680845294825291829020805460ff191686151590811790915591519182527f17307eab39ab6107e8899845ad3d59bd9653f200f220920489ca2b5937696c31910160405180910390a3505050565b6001600160a01b0383163b1561168a57604051630a85bd0160e11b81526001600160a01b0384169063150b7a02906115ab908890889087908790600401612044565b6020604051808303815f875af19250505080156115e5575060408051601f3d908101601f191682019092526115e291810190612080565b60015b61164c573d808015611612576040519150601f19603f3d011682016040523d82523d5f602084013e611617565b606091505b5080515f0361164457604051633250574960e11b81526001600160a01b0385166004820152602401610594565b805160208201fd5b6001600160e01b03198116630a85bd0160e11b1461168857604051633250574960e11b81526001600160a01b0385166004820152602401610594565b505b5050505050565b606061169c826111b9565b505f6116b260408051602081019091525f815290565b90505f8151116116d05760405180602001604052805f8152506116fb565b806116da8461186a565b6040516020016116eb929190612030565b6040516020818303038152906040525b9392505050565b808061171657506001600160a01b03821615155b156117d7575f611725846111b9565b90506001600160a01b038316158015906117515750826001600160a01b0316816001600160a01b031614155b801561176457506117628184611100565b155b1561178d5760405163a9fbf51f60e01b81526001600160a01b0384166004820152602401610594565b81156117d55783856001600160a01b0316826001600160a01b03167f8c5be1e5ebec7d5bd14f71427d1e84f3dd0314c0f7b2291e5b200ac8c7c3b92560405160405180910390a45b505b50505f90815260046020526040902080546001600160a01b0319166001600160a01b0392909216919091179055565b6118118383836118fa565b610617576001600160a01b03831661183f57604051637e27328960e01b815260048101829052602401610594565b60405163177e802f60e01b81526001600160a01b038316600482015260248101829052604401610594565b60605f6118768361195b565b60010190505f8167ffffffffffffffff81111561189557611895611bc6565b6040519080825280601f01601f1916602001820160405280156118bf576020820181803683370190505b5090508181016020015b5f19016f181899199a1a9b1b9c1cb0b131b232b360811b600a86061a8153600a85049450846118c957509392505050565b5f6001600160a01b03831615801590610f055750826001600160a01b0316846001600160a01b0316148061193357506119338484611100565b80610f055750505f908152600460205260409020546001600160a01b03908116911614919050565b5f8072184f03e93ff9f4daa797ed6e38ed64bf6a1f0160401b83106119995772184f03e93ff9f4daa797ed6e38ed64bf6a1f0160401b830492506040015b6d04ee2d6d415b85acef810000000083106119c5576d04ee2d6d415b85acef8100000000830492506020015b662386f26fc1000083106119e357662386f26fc10000830492506010015b6305f5e10083106119fb576305f5e100830492506008015b6127108310611a0f57612710830492506004015b60648310611a21576064830492506002015b600a83106104a45760010192915050565b828054828255905f5260205f20908101928215611a85579160200282015b82811115611a8557825182546001600160a01b0319166001600160a01b03909116178255602090920191600190910190611a50565b50611a91929150611a95565b5090565b5b80821115611a91575f8155600101611a96565b80356001600160a01b0381168114611abf575f5ffd5b919050565b5f60208284031215611ad4575f5ffd5b6116fb82611aa9565b6001600160e01b031981168114611167575f5ffd5b5f60208284031215611b02575f5ffd5b81356116fb81611add565b5f81518084528060208401602086015e5f602082860101526020601f19601f83011685010191505092915050565b602081525f6116fb6020830184611b0d565b5f60208284031215611b5d575f5ffd5b5035919050565b5f5f60408385031215611b75575f5ffd5b611b7e83611aa9565b946020939093013593505050565b5f5f5f60608486031215611b9e575f5ffd5b611ba784611aa9565b9250611bb560208501611aa9565b929592945050506040919091013590565b634e487b7160e01b5f52604160045260245ffd5b5f5f67ffffffffffffffff841115611bf457611bf4611bc6565b50604051601f19601f85018116603f0116810181811067ffffffffffffffff82111715611c2357611c23611bc6565b604052838152905080828401851015611c3a575f5ffd5b838360208301375f60208583010152509392505050565b5f82601f830112611c60575f5ffd5b6116fb83833560208501611bda565b5f5f5f5f60808587031215611c82575f5ffd5b843567ffffffffffffffff811115611c98575f5ffd5b611ca487828801611c51565b945050602085013567ffffffffffffffff811115611cc0575f5ffd5b611ccc87828801611c51565b93505060408501359150606085013567ffffffffffffffff811115611cef575f5ffd5b611cfb87828801611c51565b91505092959194509250565b5f5f60408385031215611d18575f5ffd5b611d2183611aa9565b915060208301358015158114611d35575f5ffd5b809150509250929050565b5f5f5f5f60808587031215611d53575f5ffd5b611d5c85611aa9565b9350611d6a60208601611aa9565b925060408501359150606085013567ffffffffffffffff811115611d8c575f5ffd5b8501601f81018713611d9c575f5ffd5b611cfb87823560208401611bda565b634e487b7160e01b5f52602160045260245ffd5b8b815261016060208201525f611dd961016083018d611b0d565b8281036040840152611deb818d611b0d565b90508a606084015260038a10611e0f57634e487b7160e01b5f52602160045260245ffd5b896080840152611e2a60a084018a6001600160a01b03169052565b6001600160a01b03881660c084015282810360e0840152611e4b8188611b0d565b61010084019690965250506101208101929092526101409091015298975050505050505050565b5f5f60408385031215611e83575f5ffd5b611e8c83611aa9565b9150611e9a60208401611aa9565b90509250929050565b600181811c90821680611eb757607f821691505b602082108103611ed557634e487b7160e01b5f52602260045260245ffd5b50919050565b634e487b7160e01b5f52601160045260245ffd5b808201808211156104a4576104a4611edb565b601f82111561061757805f5260205f20601f840160051c81016020851015611f275750805b601f840160051c820191505b8181101561168a575f8155600101611f33565b815167ffffffffffffffff811115611f6057611f60611bc6565b611f7481611f6e8454611ea3565b84611f02565b6020601f821160018114611fa6575f8315611f8f5750848201515b5f19600385901b1c1916600184901b17845561168a565b5f84815260208120601f198516915b82811015611fd55787850151825560209485019460019092019101611fb5565b5084821015611ff257868401515f19600387901b60f8161c191681555b50505050600190811b01905550565b5f6001820161201257612012611edb565b5060010190565b5f81518060208401855e5f93019283525090919050565b5f610f0561203e8386612019565b84612019565b6001600160a01b03858116825284166020820152604081018390526080606082018190525f9061207690830184611b0d565b9695505050505050565b5f60208284031215612090575f5ffd5b81516116fb81611add56fea2646970667358221220b399616c2ccef8006ff97a1bfd43518e405c20b0c20c0c0c9720dd6f950b319064736f6c634300081c0033",
  "linkReferences": {},
  "deployedLinkReferences": {},
  "immutableReferences": {},
  "inputSourceName": "project/contracts/SafeDeal.sol",
  "buildInfoId": "solc-0_8_28-9a38029a82b71aa9b26b9aa45e1e242c3b39d309"
}